:020000040800F2
:10000000D81100202102000825020008270200085C
:10001000290200082B0200082D0200080000000041
:100020000000000000000000000000002F02000897
:100030003102000800000000330200083502000809
:1000400037020008370200083702000837020008AC
:10005000370200083702000837020008370200089C
:10006000370200083702000837020008370200088C
:10007000370200083702000837020008370200087C
:10008000370200083702000837020008370200086C
:100090005F26000837020008370200083702000810
:1000A000370200083702000837020008370200084C
:1000B000DB1B0008F31B0008291C0008370200089E
:1000C000370200083702000837020008370200082C
:1000D00037020008DF0700086B090008292E000816
:1000E0009946000837020008370200083702000866
:1000F00037020008370200083702000837020008FC
:1001000037020008370200083B1C000837020008CD
:1001100037020008370200083702000837020008DB
:1001200037020008370200083702000837020008CB
:1001300000F002F800F05FF80AA090E8000C82449A
:100140008344AAF10107DA4501D100F054F8AFF277
:10015000090EBAE80F0013F0010F18BFFB1A43F0A5
:100160000103184764CB000084CB00000A444FF021
:10017000000C10F8013B13F0070408BF10F8014B06
:100180001D1108BF10F8015B641E05D010F8016B4B
:10019000641E01F8016BF9D113F0080F1EBF10F8AF
:1001A000014BAD1C0C1B09D16D1E58BF01F801CBD2
:1001B000FAD505E014F8016B01F8016B6D1EF9D555
:1001C0009142D6D37047000000230024002500266A
:1001D000103A28BF78C1FBD8520728BF30C148BFAA
:1001E0000B607047642908F05984002070471FB5E0
:1001F0001FBD10B510BD08F01FFE1146FFF7F7FF39
:1002000000F02AF808F03DFE03B4FFF7F2FF03BC4C
:1002100000F060FA30BF72B662B680F308887047AB
:1002200008480047FEE7FEE7FEE7FEE7FEE7FEE7D9
:10023000FEE7FEE7FEE7FEE703480449044A054BF4
:100240007047000031010008D80B0020D8110020B1
:10025000D80D0020D80D002008B5092000F0E1F9E4
:10026000482000F081F8022000F0C6F9012000F0DB
:10027000C3F900F0FDFD00F035FE3548006818B9FF
:1002800001203449087002E000203249087001F072
:100290006CF84FF4E131482000F036FA4FF4165173
:1002A000242000F0EDFA4FF4E131242002F041FD6A
:1002B00001F0B6FA01F024FB01F08CFB01F0F2FB37
:1002C00001F016F901F0C6FC07F087FB07F099FB77
:1002D000002141F61F4001F01BFA1D48083000685C
:1002E00008B902F06AFC02F005FE03F015F801F00F
:1002F00037FF00200623032202210090012001F095
:1003000059FF23E014480078012804D102F0B6FC1C
:100310000020114908701148007820B908F035F91B
:1003200007F00CFE01E008F0CDF902F04FFA03F0FF
:1003300001F800F0A8FC01200949087000200949D3
:10034000087000BF064800780028FBD1DAE70000FB
:1003500030812142660000207C0000200400002043
:1003600065000020640000204FF0E021096921F0C1
:1003700004014FF0E0221161C21700EB5272C2F388
:10038000C702234B1A701946097801EB4102C2EBF0
:10039000C1114FF6FF7202EAC1011E4A1180704777
:1003A00001461B4A12784A434FF0E0235A6100226B
:1003B0009A6101221A6100BF4FF0E022106900F03B
:1003C00001021AB100F48032002AF5D000224FF069
:1003D000E0231A619A61704701460E4A12884A4327
:1003E0004FF0E0235A6100229A6101221A6100BF96
:1003F0004FF0E022106900F001021AB100F48032DF
:10040000002AF5D000224FF0E0231A619A6170476C
:10041000DC000020DE000020A34A0A400243A34B78
:100420001A6070470146072323EA010212029F4B1C
:100430001B1D18684FF6FF0318409D4B18431043CF
:100440009A4B1B1D186070472DE9F04107468846FE
:1004500014461D462846FFF7E5FFC5F1040007FADC
:1004600000F60F20284100EA0800064306F00F06B8
:10047000E21704EBD2625211920002F1E022D2F8AC
:1004800000212146E31704EBD3635B11A4EB431C6B
:10049000012303FA0CF31A432046E31704EBD3635A
:1004A0005B119B0003F1E023C3F800218148005D4C
:1004B00040EA06107F490855BDE8F08170B5044652
:1004C0000B46CE1701EB9676C6F38700CE1701EBED
:1004D0009676B610A1EB8606B606350E764B9B696E
:1004E00043F00103744EB3614FEAB63353F8203042
:1004F0000F26AE40B343714E46F82030334653F8D2
:10050000203004FA05F61E436C4B43F820606C4B18
:100510001B6801268E403343694E336002F00103AD
:1005200043B1674B0C331B6801268E403343644E46
:100530000C36336002F0020343B1614B08331E688E
:1005400001238B401E435E4B08331E6070BD00B517
:10055000002059490861C860142048610020886162
:10056000C8610846006840F001000860084640681D
:1005700054490840504948600846006852490840BC
:100580004D4908600846006820F48020086008464D
:10059000406820F4FE0048600020886000214FF091
:1005A0000060FFF739FF00BD10B540480830006813
:1005B00040F004003D49083108603F48C06940F000
:1005C00080503D49C8614148406840F480703F49CF
:1005D00048600846006840F004000860084600686B
:1005E00040F002000860FFF715FE10BD3048001D06
:1005F0002E49091D08607047014649062E4A926936
:1006000042F001022C4B9A612C4A083A526822F0BF
:10061000E0622A4B083B5A601A4652680A435A6005
:10062000704730B504460025FFF791FF2248006867
:1006300040F480302049086000BF1F480068400C2B
:100640000028FAD04FF480601B494860A01EC4B255
:100650000846406840EA844048600846406840F4E4
:10066000803048601A48006840F03200184908603D
:100670001148006840F080700F49086000BF0E48C4
:100680000068400E0028FAD00B48406840F0020095
:100690000949486005E008484068C0F3870505F04F
:1006A0000305022DF7D130BD80FFFF1F08ED00E0EC
:1006B0000000FA0500E400E00010024008000140DC
:1006C000000401400000FFF8FFFFF6FE007000404C
:1006D00000200240014600BF704700BFFA4A12885E
:1006E00002F04002002AF9D0C2B2F74B1B1D1A805B
:1006F0007047F649088000BFF449091F098801F0D6
:1007000040010029F8D070472DE9F05F05460E46FC
:1007100030010AF05FFC8146ED4905FB01F00AF06B
:1007200059FC824649460AF00BFB074638460AF058
:1007300019FC84B220460AF04DFC834639460AF083
:100740008EFD82464FF083410AF08CFC81460AF010
:1007500009FC80464FF6FF7000EA041404EB080021
:1007600084B2DC48806940F00400DA4988610846B8
:10077000806940F480408861D748006820F47F6039
:10078000D54908600846006840F40B600860D1480D
:10079000C06840F48040CF49C8600846C06820F473
:1007A0008040C860C948001D0480001D008842F2D6
:1007B0000C010843C549083108800846008840F408
:1007C000807008800846008840F0200008800223DE
:1007D000252201210020FFF737FEBDE8F09FBB482E
:1007E000001F008800F0200000283CD0BB49097899
:1007F00051B9BB490978491CC9B2B94A11700A29D3
:1008000002DD0121B54A1170B0490988C8B2B54965
:10081000097869B9B4490978FE2909D1B349097839
:10082000FF2905D10121AF4A11700021B04A117092
:10083000AC49097801290FD1AE49AD4A12788854E4
:10084000AB490978491CAA4A117011460978082950
:1008500002D10021A34A1170A3490978A34A11705B
:10086000A149087000BF002070479749091D088002
:1008700000BF9549098801F040010029F9D070476F
:100880002DE9F05F05460E4630010AF0A3FB8146D4
:100890008F4905FB01F00AF09DFB824649460AF0AC
:1008A0004FFA074638460AF05DFB84B220460AF04C
:1008B00091FB834639460AF0D2FC82464FF08341D1
:1008C0000AF0D0FB81460AF04DFB80464FF6FF70E0
:1008D00000EA041404EB080084B27E48806940F00A
:1008E00004007C4988610846C06940F40030C86152
:1008F0007948001F006820F47F407749091F08608D
:100900000846006840F40B400860734808300068EF
:1009100040F480607049083108606E48006940F416
:1009200080206C4908610846006920F48020086135
:10093000654808300480001D008842F20C0108431D
:1009400061490C3108800846008840F480700880B6
:100950000846008840F0200008800223262201215A
:100960000020FFF771FDBDE8F09F2DE9FF5F5648BD
:10097000008800F0200000287ED05348001D008829
:100980005D490860084600684B2803D101205B4997
:1009900008700AE058480068492803D056480068A3
:1009A0004A2802D10020554908705548007800288F
:1009B0004DD152480078D0B94F480068412809DB32
:1009C0004D480068482805DC4B48007840384D49C0
:1009D00008703CE048480068082804DC4648007875
:1009E0004849087033E00020464908702FE043482A
:1009F000007801282BD140480068432806D1002008
:100A0000414908700120414908700FE03A480068E8
:100A1000472806D101203C49087000203B49087056
:100A200004E00020384908703849087032480068EE
:100A3000412803D030480068452805D12E48007869
:100A400040383049087002E000202E4908702A48DA
:100A500000687B2802D101202D49087026480068D3
:100A60007D2802D102202A490870294800780128EF
:100A70000CD12148007800E08AE02649264A127805
:100A8000885425480078401C234908702048007885
:100A900002287DD11F48C078502803D101201F496A
:100AA0000870B3E01B48C078572803D101201C49C7
:100AB0000870ABE01748407823286AD016480078C1
:100AC0001849087068E00000004400400438014004
:100AD00040420F000010024004080140780000204E
:100AE000EB0000207A000020E9000020EA0000204E
:100AF000E80000206F000020E40000208D000020AE
:100B000066000020020000200000002001000020FC
:100B1000EC00002070020020ED0000207B0000208F
:100B20007C000020EE000020BD490978BD4A127803
:100B3000881A09F0F4FC804642460B460020BA4968
:100B400008F026FD04460D46B6490978491EB74A05
:100B5000515CA1F1300009F0E2FC064622462B462A
:100B600009F044FD82468B46B14800680AF04EF811
:100B700052465B46CDE9000109F052FACDE9020187
:100B800009F01CFAAA490860A6480078401E01E056
:100B900049E03BE0A3490870A24800780428C3DA82
:100BA000A2484078303809282FD2DFE800F0050C41
:100BB00013181D22272C2D009D4800680AF0B6F955
:100BC0009C49086021E09A4800680AF0AFF99A4908
:100BD00008601AE0964800689849086015E0944853
:100BE00000689749086010E09148006895490860DE
:100BF0000BE08F4800689449086006E08C48006864
:100C00009249086001E000E000BF00BF0020904969
:100C1000087083490870834908708549086032214B
:100C2000824807F0A9FF002004B0BDE8F09F894882
:100C30000078F8B1884800685A281BD00020854AFF
:100C4000107085480068012806DB83480068082882
:100C500002DC814801780BE07F480068412807DB0F
:100C60007D480068482803DC7B4800784038C1B2E2
:100C700008467047784800685A2802D10120754A12
:100C800010700020F5E72DE9F0477448006800284F
:100C900001DD002506E071480068002801DA022520
:100CA00000E001256E480068002801DD002606E00E
:100CB0006B480068002801DA022600E00126694836
:100CC0000068002801DD002706E06648006800286B
:100CD00001DA022700E0012763480068002802DDEE
:100CE0004FF0000808E060480068002802DA4FF082
:100CF000020801E04FF001085C48008800F5004060
:100D000084B2FF20FFF7F5FCFE20FFF7F2FC534909
:100D10000A68002A01DB114600E05142C8B2FFF721
:100D2000E8FC2846FFF7E5FC4D490A68002A01DB8C
:100D3000114600E05142C8B2FFF7DBFC3046FFF736
:100D4000D8FC48490A68002A01DB114600E05142FC
:100D5000C8B2FFF7CEFC3846FFF7CBFC42490A6821
:100D6000002A01DB114600E05142C8B2FFF7C1FC86
:100D70004046FFF7BEFC2012FFF7BBFCE0B2FFF7D6
:100D8000B8FCFF2001F0CAFFFE2001F0C7FF334985
:100D9000D1F80090B9F1000F01DB494601E0C9F13B
:100DA0000001C8B201F0BAFF284601F0B7FF2C4994
:100DB000D1F80090B9F1000F01DB494601E0C9F11B
:100DC0000001C8B201F0AAFF304601F0A7FF254993
:100DD000D1F80090B9F1000F01DB494601E0C9F1FB
:100DE0000001C8B201F09AFF384601F097FF1E4992
:100DF000D1F80090B9F1000F01DB494601E0C9F1DB
:100E00000001C8B201F08AFF404601F087FF2012BE
:100E100001F084FFE0B201F081FFBDE8F08700003F
:100E2000ED000020EE0000200000244070020020B1
:100E3000F0000020BC000020C0000020A80000201E
:100E4000AC000020B0000020B4000020B80000205A
:100E5000EC000020F4000020E40000200800002046
:100E60000C0000201000002014000020D8000020FA
:100E70001748806940F008001549886115480068E6
:100E800020F47000134908600846006840F44010E0
:100E9000086010480830006840F400500D490831DF
:100EA0000860704718B900210B4A11600FE00B4928
:100EB0000968491C094A1160814208D1064909683C
:100EC000C943074AC2F8B4110021044A11607047AF
:100ED00000100240040C0140B4812142F8000020BF
:100EE000008021425948806940F0080057498861D4
:100EF0005748006857490840554908600846006847
:100F0000554908435249086051480830006840F488
:100F100080504F49083108600846006840F480401E
:100F20000860704701464D48006828B94C48008861
:100F3000401C4B4A108002E00020494A108047487C
:100F4000006828B94748007810B90120454A107058
:100F500045480078B0B943480078012807D1434894
:100F60000078401C414A107001203F4A10703F48F1
:100F70000078022806D100203C4A10703C4A1080BC
:100F80000220704735480068012804D10020354A06
:100F90001070354A10703548007801281CD134484B
:100FA0000088401C324A10801046008888420ADDC2
:100FB0002B480088884206DA00202C4A10702C4A00
:100FC00010800120DDE726480088884204DD0020EB
:100FD000264A1070264A10800020D2E72548007863
:100FE00038B11E48006820B900202249087001204D
:100FF00070471A480068012801D11E490870002076
:10100000F6E71D48008840B91448006828B91B4815
:101010000088401C1949088002E000201749088018
:1010200016480088C82807DD0120134908800020E1
:1010300012490880012070470F480088012802D11A
:1010400000200D4908800020F5E700000010024054
:10105000040C0140FFFFF0F0000008083881214235
:1010600002010020FC000020FD000020FE00002006
:1010700000010020040100200801002006010020DA
:1010800010B50A461AB10123FE4C236002E000238A
:10109000FC4C2360002116E00023FA4C343423601A
:1010A00000F080031BB10123241D236003E0002313
:1010B000F44C383423600123F24C3434236043066B
:1010C000180E4B1CD9B20829E6DB0123ED4C236036
:1010D00010BD30B500241CE004F1B001C8B20021FD
:1010E000FFF7CEFF00210846FFF7CAFF00211020BE
:1010F000FFF7C6FF002508E0E34901EBC501085DE5
:101100000121FFF7BDFF681CC5B2802DF4DB601C18
:10111000C4B2082CE0DB30BD00B500218D20FFF704
:10112000AFFF00211420FFF7ABFF0021AF20FFF736
:10113000A7FF00BD00B500218D20FFF7A1FF002112
:101140001020FFF79DFF0021AE20FFF799FF00BDA3
:1011500030B500240CE0002506E00020CA4901EB70
:10116000C5010855681CC5B2802DF6DB601CC4B2F1
:10117000082CF0DBFFF7ADFF30BDF0B514460026BC
:101180007F2801DC3F2900DDF0BD0B46CF1701EBC6
:101190005777FF10C7F10707FAB2CF1701EB577760
:1011A000FF10A1EBC707FDB2C5F107070123BB4044
:1011B000DEB24CB1B44B03EBC0039B5C3343B24F84
:1011C00007EBC007BB5408E0AF4B03EBC0039B5CCD
:1011D000B343AD4F07EBC007BB5400BFD4E72DE9C5
:1011E000F04F80460C4615461E46A346A5F120004A
:1011F000C5B200273EE00C2E07D105EB4500A34900
:1012000001EB800010F8079004E0A14800EB051006
:1012100010F807904FF0000A26E009F0800028B18E
:1012200021464046099AFFF7A8FF09E0099808B946
:10123000012000E00020024621464046FFF79DFFC6
:101240004FEA49604FEA1069601CC4B2A4EB0B007E
:10125000B04205D15C4608F1010000F0FF0806E04D
:101260000AF1010000F0FF0ABAF1080FD5DB00BF58
:10127000781CC7B2B742BEDBBDE8F08F10B502469E
:10128000012000E050430B00A1F10104E1B2F9D1CB
:1012900010BD2DE9FF4F81B0074691461E460E9DB9
:1012A0004FF0000A002439E0301B401EC1B20A2072
:1012B000FFF7E4FFB9FBF0F00A21B0FBF1F201FB0C
:1012C0001208BAF1000F16D1701EA04213DDB8F15A
:1012D000000F0ED10120AB4605EBDB71491001FB7D
:1012E00004710090C8B22B4620220299FFF777FFC5
:1012F00012E04FF0010A0120AB4605EBDB7149100B
:1013000001FB04710090C8B208F13001CAB22B464B
:101310000299FFF764FF00BF601CC4B2B442C3DB94
:1013200005B0BDE8F08F78B505460E46144618E0C6
:101330007A2D03DD002506F11000C6B23A2E04DD39
:10134000002005460646FFF703FF012000902278A3
:101350000C2331462846FFF742FF05F10800C5B2CD
:10136000641C20780028E3D178BD10B54948806915
:1013700040F01000474988610846806940F001004C
:10138000886145484068C0F31300434948600846F7
:10139000406842490843404948600846006820F0D8
:1013A0000F0008600846006840F0020008603C48F2
:1013B000006840F480703A4908603648006A20F0BE
:1013C0000100344908623748008820F0010035499F
:1013D00008803348006820F480703149086000209C
:1013E00028493C3108606420FEF7F6FF01202E49B1
:1013F000C1F8BC010021AE20FFF742FE0021D5203C
:10140000FFF73EFE00215020FFF73AFE0021A82002
:10141000FFF736FE00213F20FFF732FE0021D320E8
:10142000FFF72EFE00210846FFF72AFE002140208C
:10143000FFF726FE00218D20FFF722FE0021142059
:10144000FFF71EFE00212020FFF71AFE00210220D8
:10145000FFF716FE0021A120FFF712FE0021C02099
:10146000FFF70EFE0021DA20FFF70AFE002112200E
:10147000FFF706FE00218120FFF702FE0021EF208A
:1014800014E0000080012242A20200204EB40008B5
:10149000C2B80008001002400010014000002022E5
:1014A00000700040306C004000002242FFF7E8FD71
:1014B0000021D920FFF7E4FD0021F120FFF7E0FD36
:1014C0000021DB20FFF7DCFD00213020FFF7D8FDF5
:1014D0000021A420FFF7D4FD0021A620FFF7D0FDB6
:1014E0000021AF20FFF7CCFDFFF732FE10BD00005A
:1014F0006D48806940F004006B4988616B48006862
:1015000020F47000694908606748806940F4007001
:10151000654988610846C06840F40070C8600846A4
:10152000C06820F40070C8600846406820F440405D
:1015300048600846406840F4004048605C480068E5
:101540005C4908405A490860084600680860084637
:10155000006820F480700860081D006820F0020018
:10156000091D08600846006820F4602008600846ED
:10157000006840F4602008600846006840F480106D
:1015800008600846006820F4006008604848283079
:10159000006820F470004649283108600846006859
:1015A0000020086042480C30006820F47000404978
:1015B0000C3108600846006840F4603008603C4820
:1015C000001D006840F001003949091D0860084607
:1015D000006840F00800086000BF3548001D006842
:1015E00000F008000028F8D13148001D006840F0E4
:1015F00004002F49091D086000BF2D48001D006828
:1016000000F004000028F8D1704701462848303027
:10161000006820F01F00264A303210601046006833
:10162000084310602248001D006840F48000204AF2
:10163000121D106000BF1E48001F006800F002006D
:101640000028F8D01A484830006880B270472DE969
:10165000F04F87B00520FFF7D8FF019008F076FF24
:1016600080464FF06632144B08F0C0FF0022134B47
:10167000CDE9020108F0BAFF0022114BCDE90401C7
:1016800008F0B4FF064600220E4B08F085FD044624
:1016900000220D4B08F080FD824608F011FF0690F5
:1016A000069807B0BDE8F08F001002400008014026
:1016B00004240140FFFFF00066660A400000264057
:1016C000000059400000F03F0000B04050488069E1
:1016D00040F008004E4988610846806940F01000DB
:1016E00088614C48006820F0FF004A4908600846BD
:1016F000006840F0220008604748006820F47F003E
:10170000454908600846006840F4081008607047C2
:1017100000B503460A46FFF7D9FF3D48806940F40B
:1017200000503B4988610846806940F0100088619C
:101730003948406820F0FF00374948600846406853
:1017400040F0BB0048600846006820F07F40086019
:101750000846006840F03B40086030480380001FA6
:1017600002802E481438008840F060002B4914395C
:1017700008800846008840F4C0400880081D0088A2
:1017800040F06000091D08800846008840F4C04011
:101790000880081F008840F00800091F08800846DC
:1017A000008840F400600880081D008840F00800B0
:1017B000091D08800846008840F400600880081D64
:1017C000008840F00100091D08800846008840F0AC
:1017D000100008800846008840F4807008800846A1
:1017E000008840F4805008800C481830008840F48D
:1017F00000400A49183108804FF4004007492C394D
:1018000008800846008840F00100088000BD000004
:1018100000100240000C0140001001402C34014037
:1018200010B5FA48406840F48070F8494860F848BC
:10183000C06940F00100F649C8610846806940F07F
:10184000040088610846806940F008008861F1481A
:10185000006820F07040EF4908600846006840F0DA
:1018600080400860EC48006820F47040EA49086055
:101870000846006840F4804008604FF0804080894E
:1018800040F001004FF0804188810846808940F097
:101890004000888101231C2203211846FEF7D4FD55
:1018A00000204FF0804108854FF6FF70888508467C
:1018B000008820F4407008800846008820F060000E
:1018C00008800846008B40F0010008830846008B22
:1018D00040F4807008830846008C20F002000884E1
:1018E0000846008C20F0200008840846008940F05B
:1018F000030008810846008840F00100088010BD00
:1019000010B5C348C06940F00200C149C86108462B
:10191000806940F008008861BE48001F006820F020
:101920007F40BC49091F08600846006840F08840B5
:101930000860BA48008840F00100B84908800846AD
:10194000008840F04000088001231D220321184632
:10195000FEF77AFD0020B1491C3108804FF6FF7078
:10196000091D0880AD480C38008820F44070AB4950
:101970000C3908800846008820F060000880A748DD
:101980000C30008840F00100A4490C310880084662
:10199000008840F480700880A0481430008820F04F
:1019A00002009E49143108800846008820F020007B
:1019B00008809A48001F008840F003009749091FDB
:1019C000088096480C38008840F0010093490C3993
:1019D000088010BD10B58E48C06940F004008C49E5
:1019E000C8610846806940F0080088618A4800683C
:1019F00020F07F40884908600846006840F0884031
:101A000008608748008840F0010085490880084642
:101A1000008840F04000088001231E220321184660
:101A2000FEF712FD00207E491C3108804FF6FF7042
:101A3000091D08807A480C38008820F440707849E5
:101A40000C3908800846008820F06000088074483F
:101A50000C30008840F0010071490C3108800846C4
:101A6000008840F4807008806D481430008820F0B1
:101A700002006B49143108800846008820F02000DD
:101A800008806748001F008840F003006449091F70
:101A9000088063480C38008840F0010060490C3928
:101AA000088010BD10B55A48C06940F00800584978
:101AB000C8610846806940F0040088615548001FED
:101AC000006820F0FF005349091F086008460068BD
:101AD00040F044000860C804808940F00100C90457
:101AE00088810846808940F04000888101233222A5
:101AF00003211846FEF7A8FC00204A4908804FF64B
:101B0000FF70091D088047482838008820F440707D
:101B10004449283908800846008820F06000088081
:101B200040481038008840F001003E4910390880D4
:101B30000846008840F4807008803A4808380088D9
:101B400020F002003749083908800846008820F054
:101B50002000088033482038008840F003003149D5
:101B6000203908802F482838008840F001002D498E
:101B70002839088010BD0146022906D003290DD05E
:101B8000042914D0052924D11AE04FF08042928C08
:101B900010B200224FF080439A841CE01F4A183292
:101BA000128810B200221D4B18331A8013E01C4A11
:101BB0001832128810B20022194B18331A800AE02A
:101BC000184A121F128810B20022164B1B1F1A80CF
:101BD00001E0002000BF00BF70474FF08040008A46
:101BE0004FF08040008A20F001004FF080410882D1
:101BF00070470A48001D00880848001D008820F032
:101C000001000649091D08807047000000000140DE
:101C10000010024004080140000C01400C04004088
:101C20000C080040280C004008480088074800883D
:101C300020F00100054908807047054800880448E5
:101C4000008820F001000249088070471008004019
:101C5000100C0040F748806940F00800F5498861A1
:101C6000F548006820F47F40F349086008460068A2
:101C700040F44C500860704710B5EF48006820F4FD
:101C80007040ED4908600846006840F44050086024
:101C90000120EA490860EA48D0F82C0108B9002080
:101CA00010BD0120E549091F0860FEF779FB0020FF
:101CB000E349C1F8AC01E1488038006808B1002070
:101CC000EEE70120FEF76CFB0020DC49091F0860ED
:101CD0000120E5E710B5D848006820F47040D649E7
:101CE00008600846006840F4405008600020D3496E
:101CF000091F0860D249C1F8AC010120FEF750FB72
:101D00000120CE49091F0860CD49C1F8AC01FEF79A
:101D100047FB10BD10B50024C748006820F4704090
:101D2000C54908600846006840F40040086001208A
:101D3000C2490860FEF734FB0120C149C1F8A8017F
:101D4000FEF72EFB0AE0601CC4B2322C03DDFFF765
:101D5000C1FF002010BD0120FEF722FBB7488038EC
:101D600000680028EFD1B549091F08600120F1E79C
:101D700010B50020B149091F0860AF48006820F481
:101D80007040AD4908600846006840F44050086063
:101D90000020AB49C1F8AC010120FEF701FB012096
:101DA000A649091F0860FEF7FBFA0020A449C1F804
:101DB000A80110BD10B50020A049091F08609E4869
:101DC000006820F470409C4908600846006840F4B0
:101DD0004050086001209A49C1F8AC01FEF7E0FAD2
:101DE00001209649091F0860FEF7DAFA002094499D
:101DF000C1F8A80110BD70B504468F48006820F4F2
:101E000070408D4908600846006840F44050086002
:101E100000208A49091F0860002516E0E00987496B
:101E200008606006040E0120FEF7BAFA012084491A
:101E3000C1F8A801FEF7B4FA00208049091F086024
:101E40000120FEF7ADFA681CC5B2082DE6DB70BDB7
:101E50002DE9F04105460E4617469846FFF70CFF60
:101E600010B90120BDE8F0816906080EFFF7C3FF35
:101E7000FFF750FF18B9FFF72DFF0120F2E73046BA
:101E8000FFF7B9FFFFF746FF00240BE018F8040046
:101E9000FFF7B1FFFFF73EFF18B9FFF71BFF002068
:101EA000E0E7641CBC42F1DBFFF714FF0020D9E738
:101EB00070B5054600246048006820F470405E4913
:101EC00008600846006840F400400860002617E0FB
:101ED00000205A49091F08600220FEF761FA01201C
:101EE0005749C1F8A8016006040E544880380068BC
:101EF00008B1601CC4B20220FEF752FA701CC6B2D0
:101F0000082EE5DB15B1FFF733FF01E0FFF752FFC5
:101F1000204670BD2DE9F04106460F4614461D4689
:101F2000FFF7AAFE10B90120BDE8F0817106080E86
:101F3000FFF761FFFFF7EEFE18B9FFF7CBFE0120B8
:101F4000F2E73846FFF757FFFFF7E4FEFFF794FE8E
:101F5000012101EB4601C8B2FFF74DFFFFF7DAFEA2
:101F60000DE0012C04D10020FFF7A2FF287003E050
:101F70000120FFF79DFF28706D1C601EC4B2002C6D
:101F8000EFD1FFF7A7FE0020CEE770B505460E465D
:101F90000024FFF771FE2846FFF72DFF641CFFF7B2
:101FA000B9FE3046FFF727FF641CFFF7B3FEFFF7CB
:101FB00063FE691CC8B2FFF71EFF641CFFF7AAFE90
:101FC0000020FFF775FF0446FFF784FE204670BD32
:101FD0002DE9F0410746884615461E460024FFF7C6
:101FE0004BFE3846FFF707FFFFF794FE4046FFF72A
:101FF00002FFFFF78FFEFFF73FFE791CC8B2FFF725
:10200000FAFEFFF787FE00BF0DE0681EA04204D075
:102010000120FFF74DFF305503E00020FFF748FF98
:102020003055601CC4B2AC42EFDBFFF753FE2046D4
:10203000BDE8F08100100240040C0140AC81214257
:10204000008021422DE9F04180460D4616461F468C
:102050000024FFF711FE4046FFF7CDFEFFF75AFEC2
:102060002846FFF7C8FEFFF755FE00BF06E0385DC3
:10207000FFF7C1FEFFF74EFE601CC4B2B442F6DBB0
:10208000FFF728FE0120BDE8F08170B505460E4639
:10209000144631462846FFF778FF2070012070BDB6
:1020A00037B504460D4602AB012229462046FFF70C
:1020B000C9FF3EBD2DE9F8430746884614461D4634
:1020C000089E6A4641463846FFF7DFFF28B3601C8A
:1020D000FF2101FA00F0C4F108012944491EFF2242
:1020E0000A41104300F0FF09C5F1080006FA00F0AC
:1020F000C6B2C4F1070006419DF8000000EA0900DD
:1021000000909DF80000304300909DF8002041466B
:102110003846FFF7C5FFBDE8F8830020FBE7F8B5B8
:1021200006460F4614461D466A4639463046FFF7B6
:10213000ACFF2DB10120A0409DF80010084305E040
:102140000120A0409DF8001021EA0000C0B20090DC
:102150009DF8002039463046FFF7A2FFF8BD000089
:1021600010B51248806940F0080010498861104895
:10217000006820F070400E4908600846006840F092
:10218000004008600A480830006840F400400849F0
:102190000831086001220F211046FEF78FF9022353
:1021A000282201211846FEF74FF910BD0010024009
:1021B000040C01402DE9F04704460D4616461F4623
:1021C000DDF820904FF0000814B10DB106B117B939
:1021D0000120BDE8F087601EC4B2681EC5B2701E43
:1021E000C6B2781E87B2FE48806940F00100FC4903
:1021F00088610846806940F0080088610846C06927
:1022000040F00070C861F748006820F0FF00F54911
:1022100008600846006840F0B8000860F1480830DF
:10222000006840F44070EF4908310860EE484068AB
:1022300040F48040EC4948600020EC4908600846C2
:10224000006840F00100086008E008F101001FFA92
:1022500080F8B8F1640F01DD0220BAE7E348001D01
:10226000006800F001000028EFD0E0480068DF4976
:10227000086008460068086008460068086008466C
:10228000006840F0100008600846006808600846D2
:10229000006808600020D5491C31086008460068C5
:1022A00040EA897008600846006840EA04600860F7
:1022B0000846006840EA055008600846006840EAA1
:1022C000064008600846006838430860C748006850
:1022D00020F00100C549086009E008F101001FFA7B
:1022E00080F84FF6F070804501DD032071E7BF48AC
:1022F000001D006800F001000028EED1BC48006815
:1023000040F00100BA490860B9481C30006820F06C
:102310000100B7491C310860B5480C30006840F036
:102320000100B3490C310860B148001D0068B04994
:10233000091D0860AE4814300068AD4914310860CA
:102340000020AB49403108600021A94844300160B9
:10235000A7481C30006840F00100A5491C31086006
:10236000A34800680020A2490860A0481430006813
:1023700040F002009D49143108600223142200211C
:102380000120FEF761F8002023E7F0B505460E4670
:10239000059C96480830006800F0806008B1002174
:1023A00011E092480830006800F0006008B1012197
:1023B00009E08E480830006800F0805008B1022122
:1023C00001E0FF20F0BD00278948803800EB0110B4
:1023D00007601EB9C5F30A056D0502E025F06045EA
:1023E000ED008348803800EB011000682843804FDF
:1023F000803F07EB011738607D48803800EB011003
:10240000006840EA86077A48803800EB01100760D0
:102410007748803800EB0110006840EA42077448B2
:10242000803800EB0110076003F00F03704880381C
:1024300000EB0110406820F00F076D48803800EB7A
:10244000011047606A48803800EB0110406818436B
:10245000674F803F07EB01177860E0790006A779A6
:1024600040EA0740677940EA072720790743604838
:10247000803800EB0110C760E0780006A77840EADA
:102480000740677840EA072027783843584F803F55
:1024900007EB0117B8605648803800EB0110006860
:1024A00040F001075248803800EB011007600846F1
:1024B00088E70146002021B1012916D002293CD12C
:1024C00027E04A4A0832126802F001021043474AE4
:1024D0000832126802F002021043444A08321268BD
:1024E00002F0806240EA126029E0404A0832126835
:1024F00002F0010210433D4A0832126802F0020263
:1025000010433A4A0832126802F0006240EA526010
:1025100015E0364A0832126802F001021043334ACD
:102520000832126802F002021043304A0832126880
:1025300002F0805240EA926001E0052000BF00BF37
:102540007047014629B929480C30006800F00300A3
:102550007047012905D125481030006800F00300BC
:10256000F6E70020F4E7F0B5DDE90554204E503ED3
:1025700006EB0016366806F00406167016783EB9AB
:102580001B4E503E06EB00163668760D0E6006E0D8
:10259000174E503E06EB00163668F6080E60144ED5
:1025A000503E06EB0016366806F002061E70104E0E
:1025B000503E06EB0016766806F00F062E700C4EA5
:1025C000503E06EB0016B6682670094E503E06EBEC
:1025D0000016B668360A6670054E503E0AE00000E6
:1025E00000100240040C0140000001400064004063
:1025F0000066004006EB0016B668360CA670D24E98
:1026000006EB0016B668360EE670CF4E06EB0016E7
:10261000F6682671CC4E06EB0016F668360A66712F
:10262000C94E06EB0016F668360CA671C64E06EBD0
:102630000016F668360EE67130B9C44E366846F0BC
:102640002006C24F3E6009E0012807D1BF4E361D6B
:10265000366846F02006BD4F3F1D3E60F0BD10B508
:102660008AB0BBA103C9CDE9040102A806A907AB42
:1026700008AACDE9001009A90020FFF774FF002483
:102680000FE0072C04D102A8005DB34908700AE0EE
:1026900002A8005D04A9095D884200D003E0601C27
:1026A000C4B2072CEDDD00BF40F221110998884229
:1026B00007D1A948007820B1A84802990160039980
:1026C00041600AB010BDF8B505460E4600243346F9
:1026D0000022114640F201600095FFF756FE0746C2
:1026E00001E0601C84B23846FFF7E3FE072803D000
:1026F00040F6FF708442F4DB40F6FF70844201DB59
:102700000120F8BD0020FCE710B586B0044600208B
:10271000FFF717FF10B9002006B010BD02A803ABE9
:1027200004AA05A9CDE900040020FFF71CFF0598C5
:10273000122805D19DF8100010B99DF80C0008B1C1
:10274000002002909DF80800E6E7F8B505460E4621
:10275000002433460022114640F201700095FFF735
:1027600014FE074601E0601C84B23846FFF7A1FE64
:10277000072803D040F6FF708442F4DB40F6FF7078
:10278000844201DB0120F8BD0020FCE7F8B50646D5
:102790000D46002408230022114630460095FFF71D
:1027A000F4FD074601E0601C84B23846FFF781FE65
:1027B000072803D040F6FF708442F4DB40F6FF7038
:1027C000844201DB0120F8BD0020FCE72DE9FC5F1D
:1027D00063480068002801DD002406E060480068C6
:1027E000002801DA022400E001245E480068002885
:1027F00001DD002506E05B480068002801DA0225BB
:1028000000E0012558480068002801DD002606E0A8
:1028100055480068002801DA022600E001265348E6
:102820000068002801DD002706E050480068002805
:1028300001DA022700E001274D494E48006808F000
:1028400011FC4D49009008F00DFA019008F08AFB48
:102850001FFA80F846494948006808F003FC4649D9
:10286000009008F0FFF9019008F07CFB1FFA80F956
:102870003F494348006808F0F5FB3F49009008F0E5
:10288000F1F9019008F06EFB1FFA80FA3D4880884C
:1028900000F500401FFA80FB3B48007808B9012092
:1028A00000E000203849087008460078C8B94FEAAF
:1028B00028203649087081F801804FEA2920887065
:1028C00081F803904FEA2A20087181F805A04FEAA9
:1028D0002B20887181F807B04FF48070FFF756FF06
:1028E00030E01F490868002801DB014600E0414252
:1028F000264A1170104644701A490868002801DB06
:10290000014600E04142214A91701046C5701649C7
:102910000868002801DB014600E041421B4A1171B2
:102920001046467111490868002801DB014600E0A5
:102930004142164A91711046C771014640F201109A
:10294000FFF724FFBDE8FC9FB06500400C64004029
:102950000A0C0F13181E25007700002067000020C6
:10296000080000200C0000201000002014000020AF
:102970000000C842900000200060EA469400002059
:10298000980000200C0200200A0100207D00002099
:10299000D048D1494860D14848607047CE48006966
:1029A00040F08000CC4908617047CB48C16801F015
:1029B000010008B10120704701F0040008B10220B5
:1029C000F9E701F0100008B10320F4E70020F2E776
:1029D00070B5044600BFFFF7E8FF0546012D00D0A3
:1029E00006E00120FDF7DCFC601E84B2002CF2D171
:1029F00000BF04B9FF25284670BD70B50546002408
:102A000045F6FF70FFF7E4FF0446C4B9B248006919
:102A100040F00200B049086108464561006940F095
:102A20004000086145F6FF70FFF7D2FF0446012C15
:102A300005D0A948006920F00200A7490861204696
:102A400070BD70B505460E46FF20FFF7C1FF044676
:102A500094B9A148006940F001009F4908612E80A7
:102A6000FF20FFF7B5FF0446012C05D09A48006906
:102A700020F0010098490861204670BD0146088891
:102A800070472DE9F04105460E461746002407E041
:102A900036F814102846FFF7D4FFAD1C601C84B232
:102AA000BC42F5DBBDE8F08130B503460C46154667
:102AB000002207E01846FFF7E1FF24F812009B1CF4
:102AC000501C82B2AA42F5DB30BD2DE9F05F804692
:102AD0008A461746B8F1006F02D38148804501D37A
:102AE000BDE8F09FFFF754FFA8F1006B4FEA9B256C
:102AF000CBF34809C9F50074A74200DC3C464EE020
:102B00004FF0006101EB85208A147649FFF7CCFF76
:102B100000260BE009EB0600724931F810004FF671
:102B2000FF71884200D003E0701C86B2A642F1DB40
:102B300000BFA6421BDA4FF0006101EB8520FFF7D2
:102B40005CFF002608E03AF8160006EB0901654A2A
:102B500022F81100701C86B2A642F4DB4FF000612F
:102B600001EB85208A145F49FFF78BFF04E02246C2
:102B700051464046FFF785FFA74200D110E06D1C8B
:102B80004FF000090AEB440A08EB4408381B87B2EF
:102B9000B7F5007F02DD4FF4007400E03C46AFE77C
:102BA00000BFFFF7FBFE00BF9AE713B50446012202
:102BB00001A92046FFF789FF1CBD10B50A224A492A
:102BC0004A48FFF771FF484800884FF6FF71884276
:102BD0002DD145484088884229D143488088884281
:102BE00025D14148C088884221D13F480089884288
:102BF0001DD13D484089884219D13B48808988428F
:102C000015D11E203A49086040F6B83039490860AD
:102C100039483A49086000203949086039483A493A
:102C200008603A483A4908603A49086025E02E4869
:102C300000882F4908602C4840882E4908602A499E
:102C4000888808F0C7F92D4908602749C88808F026
:102C5000C1F92B4908602449088908F0BBF92A49C1
:102C600008602149488908F0B5F9294908601E49DA
:102C7000888908F0AFF92749086010BD10B51C48D5
:102C80000088254908801B48008848801B48006848
:102C900008F068F9204988801948006808F062F94E
:102CA0001D49C8801848006808F05CF91A49088175
:102CB0001748006808F056F9174948811548006818
:102CC00008F050F9144988810A220848FFF7FDFEF0
:102CD00010BD00002301674500200240AB89EFCD05
:102CE00000000108A20600204802002000E00008C1
:102CF000BC000020C00000200000A041A80000206F
:102D0000AC00002000004843B0000020000040411B
:102D1000B4000020B80000205C0200206849088050
:102D200000BF6749091F098801F040010029F8D058
:102D300070472DE9F05F05460E46300108F04AF96C
:102D40008146604905FB01F008F044F98246494696
:102D500007F0F6FF0746384608F004F984B220462B
:102D600008F038F98346394608F079FA82464FF080
:102D7000834108F077F9814608F0F4F880464FF671
:102D8000FF7000EA041404EB080084B24E48806926
:102D900040F001004C4988610846806940F010000D
:102DA00088610846C06940F48020C861474840688F
:102DB00020F47F40454948600846406840F40B4095
:102DC00048600846C06840F48060C8604048406879
:102DD00040F010003E4948603B48006940F48020C4
:102DE000394908610846006920F4802008613448A8
:102DF000001D0480001D008842F20C010843304988
:102E0000083108800846008840F480700880084631
:102E1000008840F0200008800223272201210020A2
:102E2000FDF712FBBDE8F09F10B52548001F008894
:102E300000F02000002841D02648007850B92648EC
:102E40000078401CC0B2244908700A2802DD012025
:102E5000204908701A480088C4B2204608F0BAF821
:102E60001E4908601E48007868B91E480078FE2890
:102E700009D11D480078FF2805D1012018490870A4
:102E800000201A4908701648007801280FD1184808
:102E900016490978445415480078401C13490870B5
:102EA00008460078082802D100200D4908700D4816
:102EB00000780D4908700B48047000BF002010BD59
:102EC0000448004040420F00001002400010014042
:102ED00000000140780000200E010020600000206A
:102EE0007A0000200C0100200D0100200B010020C1
:102EF0006F000020FD48806940F00400FB498861B4
:102F00000846806940F010008861F948006820F4A4
:102F10007060F74908600846006840F40060086087
:102F2000F248806940F01000F0498861F04800687C
:102F30004FF2F0018843EE4908600846006843F20A
:102F400030010843EA490860EA48006820F470202C
:102F5000E84908600846006840F44030086070475F
:102F600038B50446012000900020E3494870012054
:102F700000902DE0BDF80000204018B10120DF498D
:102F8000086002E00020DD4908600120DC4908609B
:102F90000520FDF705FA0020DA49C1F89001052067
:102FA000FDF7FEF90120D749C1F89001D648D0F8C5
:102FB000080130B1D0484078BDF800100843CE4930
:102FC0004870BDF800004FF6FF7101EA4000009024
:102FD000BDF80000FF28CDDD1020FDF7E1F938BD78
:102FE00010B50020C54908310860C8490878FFF7C6
:102FF000B7FFC6494878FFF7B3FF0120C249C1F8BF
:103000008C01BD484078732801D1002010BD0120FB
:10301000FCE71CB500200190012000900020B7497A
:1030200008310860B9490878FFF79AFFB74948782E
:10303000FFF796FF0220019035E00120009026E086
:103040000120AF4908600520FDF7AAF90020AD492D
:10305000C1F890010520FDF7A3F90120A949C1F8A5
:103060009001A948D0F8080150B1A3489DF8041078
:10307000405CBDF8001008439F499DF80420885427
:10308000BDF800004FF6FF7101EA40000090BDF866
:103090000000FF28D4DD1020FDF782F99DF8040020
:1030A000401CC0B201909DF804000928C5DB012036
:1030B0009249083108601CBD002004E000218E4ABE
:1030C0001154411CC8B20928F8DB704710B5FFF74E
:1030D000F3FFFFF79EFF8848C0788749097940EAE7
:1030E00001208B49088000240FE08A4810F8140062
:1030F000401E012101FA00F085490988084010B9F5
:10310000601CC0B210BD601CC4B2102CEDDB0020EE
:10311000F8E701467848405C704770B505460C46B4
:1031200000207649083108601020FDF739F90120A8
:10313000FFF716FF4220FFF713FF0020FFF710FFF5
:103140002846FFF70DFF2046FFF70AFF0020FFF794
:1031500007FF0020FFF704FF0020FFF701FF00201A
:10316000FFF7FEFE01206849C1F88C011020FDF731
:1031700017F970BD10B500206049083108601020B3
:10318000FDF70EF90120FFF7EBFE4220FFF7E8FE06
:103190000020FFF7E5FE0020FFF7E2FE0020FFF72A
:1031A000DFFE01205849C1F88C011020FDF7F8F826
:1031B00010BD10B500205149083108601020FDF7FE
:1031C000EFF80120FFF7CCFE4320FFF7C9FE0020F7
:1031D000FFF7C6FE0120FFF7C3FE0020FFF7C0FE89
:1031E0000020FFF7BDFE0020FFF7BAFE0020FFF72A
:1031F000B7FE0020FFF7B4FE01204349C1F88C015F
:103200001020FDF7CDF810BD10B500203B49083166
:1032100008600120FFF7A4FE4420FFF7A1FE002074
:10322000FFF79EFE0120FFF79BFE0320FFF798FEAD
:103230000020FFF795FE0020FFF792FE0020FFF729
:103240008FFE0020FFF78CFE01202F49C1F88C0172
:103250001020FDF7A5F810BD10B500202749083152
:1032600008601020FDF79CF80120FFF779FE4D2043
:10327000FFF776FE0020FFF773FE0020FFF770FED9
:103280000120FFF76DFE01201F49C1F88C011020BD
:10329000FDF786F810BD10B5002018490831086008
:1032A0001020FDF77DF80120FFF75AFE4320FFF7BD
:1032B00057FE0020FFF754FE0020FFF751FE5A2072
:1032C000FFF74EFE5A20FFF74BFE5A20FFF748FE4D
:1032D0005A20FFF745FE5A20FFF742FE01200A4917
:1032E000C1F88C011020FDF75BF810BD0010024002
:1032F0000010014000080140A20A0020840122427F
:1033000090012142000021420000224212010020CF
:10331000100100201401002010B5FFF72BFFFFF76C
:1033200029FFFFF727FFFFF744FFFFF76DFFFFF7C8
:10333000B2FF10BD10B50E48007898B10720FFF716
:10334000E8FE0C4908600820FFF7E3FE0A49086020
:103350000520FFF7DEFE094908600620FFF7D9FEC9
:1033600007490860FFF7B2FE0649086010BD00007B
:1033700079000020C4000020C8000020CC000020FC
:10338000D0000020D40000202DE9F04704460E466E
:103390001546FE49284607F065FE824684F000493E
:1033A0003146484607F05EFC8046514607F062FF12
:1033B000074607F0BBFDF6490860F449284607F0C8
:1033C00051FE80463146204607F04CFC814641467E
:1033D00007F050FF074607F0A9FDEE490860EB49EA
:1033E000284607F03FFE824684F0004931464846B1
:1033F00007F038FC8046514607F034FC074607F0DA
:1034000095FDE5490860E149284607F02BFE804616
:103410003146204607F026FC8146414607F022FC53
:10342000074607F083FDDD490860BDE8F0872DE918
:10343000F04704460E461546D449284607F012FECA
:10344000824684F000493146484607F00BFC80462E
:10345000514607F00FFF074607F068FDD0490860A6
:10346000CA49284607F0FEFD80463146204607F04F
:10347000F9FB8146414607F0FDFE074607F056FD81
:10348000C8490860C149284607F0ECFD824684F02F
:1034900000493146484607F0E5FB8046514607F0B3
:1034A000E1FB074607F042FDBF490860B7492846DF
:1034B00007F0D8FD80463146204607F0D3FB814611
:1034C000414607F0CFFB074607F030FDB7490860DB
:1034D000BDE8F08770B504460020002C06DD2518F5
:1034E000B34E35800025B34E356007E004F5E15555
:1034F0002D1AAF4E35800125AE4E3560002909DD0D
:10350000C1F5E1552D1AAA4E361D35800125AA4E6A
:10351000356007E04D420544A54E361D3580002537
:10352000A54E3560002A0ADDC2F5E1552D1AA04EE0
:103530000836358001259F4E361D356008E055421E
:1035400005449B4E0836358000259A4E361D356061
:10355000002B08DD1D18964E0C3635800025964E42
:10356000361D356009E003F5E1552D1A904E0C36F5
:1035700035800125904E361D356070BD8F49096834
:103580004242914202DA41428C4A11608B490968F9
:10359000814201DD894908608949096842429142B6
:1035A00002DA4142864A116085490968814201DD9B
:1035B00083490860834909684242914202DA4142E4
:1035C000804A11607F490968814201DD7D490860B8
:1035D0007D4909684242914202DA41427A4A1160C9
:1035E00079490968814201DD7749086070472DE912
:1035F000F05F04460D46601B744908600846006889
:1036000007F0D0FC834672480168584607F02AFD4F
:1036100080466E4909686F4A1268881A07F0C2FC32
:1036200083466D480168584607F01CFD81464146B7
:1036300007F018FB07466948006807F0B3FC8246AC
:10364000394607F00FFB064607F070FC6349086037
:1036500008460068B0F5E15F02DD4FF4E150086014
:103660005E48006810F5E15F02DA5D485B4908607A
:10367000564800685749086058480068BDE8F09F00
:103680002DE9F05F04460D46601B56490860084668
:10369000006807F087FC83464D480168584607F0EC
:1036A000E1FC80464F4909684F4A1268881A07F0C2
:1036B00079FC834648480168584607F0D3FC8146A8
:1036C000414607F0CFFA07464848006807F06AFC11
:1036D0008246394607F0C6FA064607F027FC4349FA
:1036E000086008460068B0F5E15F02DD4FF4E15084
:1036F00008603E48006810F5E15F02DA38483B494F
:103700000860384800683849086038480068BDE8F3
:10371000F09F2DE9F05F04460D46601B34490860B8
:103720000846006807F03EFC834629480168584671
:1037300007F098FC80462E4909682E4A1268881ABC
:1037400007F030FC834624480168584607F08AFC9D
:103750008146414607F086FA07462748006807F089
:1037600021FC8246394607F07DFA064607F0DEFB6B
:103770002149086008460068B0F5E15F02DD4FF4BA
:10378000E15008601C48006838E000003333F33E25
:103790004C00002050000020540000205800002061
:1037A000280000202C0000203000002034000020E1
:1037B0003434014090012242808121423C000020AB
:1037C000400000204400002048000020700100203C
:1037D000B800002078010020B4000020740100200F
:1037E000E0E3FFFF640100206C010020680100207D
:1037F00058010020600100205C01002010F5E15F0D
:1038000002DAFE48FE490860FE480068FE4908608A
:10381000FB480068BDE8F09F2DE9F05F04460D46C7
:10382000601BFA4908600846006807F0BBFB834646
:10383000F7480168584607F015FC8046F3490968C7
:10384000F44A1268881A07F0ADFB8346F248016813
:10385000584607F007FC8146414607F003FA074641
:10386000EE48006807F09EFB8246394607F0FAF9F9
:10387000064607F05BFBE949086008460068B0F5BA
:10388000E15F02DD4FF4E1500860E448006810F5A4
:10389000E15F02DAD948E1490860DC480068DD49A7
:1038A0000860DE480068BDE8F09F30B5DC4C246855
:1038B0004542AC4202DA4442D94D2C60D84C2468CF
:1038C000844201DDD64C2060D64C24684D42AC4287
:1038D00002DA4C42D34D2C60D24C24688C4201DD7C
:1038E000D04C2160D04C24685542AC4202DA54429C
:1038F000CD4D2C60CC4C2468944201DDCA4C226032
:10390000CA4C24685D42AC4202DA5C42C74D2C606E
:10391000C64C24689C4201DDC44C236030BD014686
:10392000002901DA484200E0084670472DE9F04FCF
:1039300089B0BF48006807F069F98246BD480CC8E5
:10394000504607F079F804460D46BB48006807F07A
:103950005DF98246B9480CC8504607F06DF8064636
:103960000F46B748006807F051F98246B5480CC8C1
:10397000504607F061F880468946002213462046EB
:10398000294606F061FD0DD1002213463046394626
:1039900006F05AFD06D1002213464046494606F07D
:1039A00053FD26D042464B464046494606F01EFE91
:1039B00032463B46CDE904013046394606F016FE54
:1039C00022462B46CDE900012046294606F00EFE90
:1039D0008246DDE9002306F023FBCDE90201DDE9A3
:1039E000042306F01DFBCDE9060106F0C1FA964A54
:1039F00003C2002213462046294606F025FD0DD1BC
:103A0000002213463046394606F01EFD06D100223C
:103A100013464046494606F017FD12D04046494637
:103A200006F0CCFA82463046394606F0C7FA83469D
:103A30002046294606F0C2FA524659460790FFF73B
:103A4000F6FC82480068FFF76AFF8149096848432D
:103A5000019006F07BFDCDE902017B480CC802987D
:103A600006F09AFB824606F02BFD07907948006825
:103A7000FFF755FF7649096800FB01FA504606F04A
:103A800065FDCDE9000170480CC8009806F084FB84
:103A9000CDE9020106F014FD06906F480068FFF7BB
:103AA0003EFF6B4909684843019006F04FFDCDE9A0
:103AB000020165480CC8029806F06EFB824606F0CB
:103AC000FFFC059065480068FFF729FF6049096819
:103AD0004843019006F03AFD82465B480CC85046C8
:103AE00006F05AFBCDE9020106F0EAFC049005A9B4
:103AF0000EC9FFF7DAFE4E48006807F087F84D4A16
:103B000003C24D48006807F081F84C4A03C24C4894
:103B1000006807F07BF84B4A03C209B0BDE8F08F9C
:103B20002DE9F04704460D46601B07F03BFA4C496F
:103B30000860084601684B48006807F093F8494957
:103B4000086049494748006807F058FB02D24748D7
:103B50004449086046494348006807F04FFA02D2DA
:103B6000444840490860444801683D48006807F0FF
:103B700081FB804641480168404607F073FA0646DB
:103B80003F494048006807F0DBF882463548016845
:103B9000504607F067FA8046314801683A480068A5
:103BA00007F060FA8146414607F05CF80746314667
:103BB00007F058F835490860294800682E49086020
:103BC0003248006807F0B2F9BDE8F0872DE9F04708
:103BD00004460D46601B07F0E5F92D4908600846CC
:103BE00001682C48006807F03DF82A4908601E4922
:103BF0002848006807F002FB51D24DE0E0E3FFFFE8
:103C00005C01002058010020600100204C010020D0
:103C1000B800002054010020B40000205001002012
:103C20003C0000204000002044000020480000200C
:103C30009C000020C0010020A0000020C80100203E
:103C4000A4000020D0010020D80100203400002072
:103C5000BC000020300000202C00002028000020A4
:103C6000AC010020B40100200050C34700401C46B6
:103C70000050C3C700401CC6B8010020B00000209F
:103C80000000C842AC000020A8000020B0010020C5
:103C90009C010020A4010020FD48FE490860FE4967
:103CA000FC48006807F0AAF902D2FC48F94908600C
:103CB000FB480168FB48006807F0DCFA8046FA48D8
:103CC0000168404607F0CEF90646F849F848006812
:103CD00007F036F88246EF480168504607F0C2F90F
:103CE0008046F0480168F348006807F0BBF9814658
:103CF000414606F0B7FF0746314606F0B3FFEE49EE
:103D00000860E8480068E6490860EB48006807F08A
:103D10000DF9BDE8F0872DE9F04704460D46601B1C
:103D200007F040F9E549086008460168E448006882
:103D300006F098FFE2490860E249E148006807F0B0
:103D40005DFA02D2D248DE490860D349DC480068F7
:103D500007F054F902D2D148D9490860DA4801681D
:103D6000D648006807F086FA8046CF48016840468A
:103D700007F078F90646CD49CD48006806F0E0FF27
:103D80008246CF480168504607F06CF98046CB4820
:103D90000168C848006807F065F98146414606F0A9
:103DA00061FF0746314606F05DFFC8490860C34819
:103DB0000068C5490860C548006807F0B7F8BDE865
:103DC000F0872DE9F04704460D46601B07F0EAF83E
:103DD000BF49086008460168BE48006806F042FF17
:103DE000BC490860B749BB48006807F007FA02D22F
:103DF000A748B8490860A849B648006807F0FEF827
:103E000002D2A648B3490860B3480168B0480068C8
:103E100007F030FA8046A4480168404607F022F9CE
:103E20000646A249A248006806F08AFF8246A948D1
:103E30000168504607F016F98046A54801689D487C
:103E4000006807F00FF98146414606F00BFF074670
:103E5000314606F007FFA14908609D4800689E4969
:103E600008609E48006807F061F8BDE8F0872DE91A
:103E7000F04704464FF07C5A4FF00109002C71D1F5
:103E80009748007809286ED2DFE800F07F051223FA
:103E900030414E5F6E0000209249086051469248C2
:103EA000006806F0DFFE904908604FF001098BE0E2
:103EB00051468C48006806F0D5FE8A490860514694
:103EC0008948006806F0CEFE874908604FF0010976
:103ED0007AE051468348006806F0C4FE81490860D4
:103EE0000020814908604FF001096DE051467D488E
:103EF000006806F0B7FE7B49086051467A480068C2
:103F000007F0B8F9784908604FF001095CE000203B
:103F10007449086051467448006807F0ABF972496B
:103F200008604FF001094FE051466E48006807F005
:103F3000A1F96C49086051466B48006807F09AF98E
:103F4000694908604FF001093EE051466548006844
:103F500007F090F9634908600020634908604FF05A
:103F6000010931E00EE110E051465E48006807F0BB
:103F700081F95C49086051465B48006806F072FEB2
:103F8000594908604FF001091EE04FF000095548FB
:103F9000006806F03BFE0746544A554B06F0FCF815
:103FA000054606F00BF84F4908604F48006806F0D8
:103FB0002DFE07464D4A4E4B06F0EEF8054605F03D
:103FC000FDFF4949086000BF00BFB9F1000F23D1D0
:103FD0004848007801280AD151464748006807F050
:103FE00049F94549086000204449086014E0444804
:103FF000007801280AD151463F48006806F032FE99
:104000003D49086000203D49086005E000203A492C
:1040100008603C4839490860B9F1010F06D1002019
:1040200034490870364908703349086036480068DA
:10403000404206F0B7FF05462A480168284607F0C7
:10404000DDF806D230480068404206F0ABFF254953
:1040500008602D48006806F0A5FF05462148016864
:10406000284606F0CBFF05D22748006806F09AFFE5
:104070001C49086024480068404206F093FF05464A
:1040800019480168284607F0B9F845D21E483DE0B6
:1040900000401C46A40100200050C3C700401CC6BD
:1040A000A80100209C010020B00000200000C842B0
:1040B000AC000020A8000020A00100208C010020FE
:1040C000940100200050C347980100209001002077
:1040D0007C01002084010020880100208001002054
:1040E000020000209C000020A0000020CDCCCCCC01
:1040F000CCCCF03F00000020A400002044010020B0
:10410000010000206F12833BBC0000200068404289
:1041100006F048FFFE490860FE48006806F042FFCE
:104120000546FB480168284606F068FF05D2F948B5
:10413000006806F037FFF6490860F648006840421C
:1041400006F030FF0546F4480168284607F056F8A7
:1041500006D2F0480068404206F024FFEE490860AD
:10416000EC48006806F01EFF0546EB48016828464B
:1041700006F044FF05D2E748006806F013FFE64961
:104180000860E0E0012CFCD1E44800780B286FD2F5
:10419000DFE800F0D7061632425E6F8B9BB7C70090
:1041A000DF48006806F0FEFE0546D948016828464B
:1041B00006F058FDD64908600120DA490870C1E0D0
:1041C000D748006806F0EEFE0546D7480168284645
:1041D00006F048FDD44908600220D2490870D04852
:1041E000006806F0DFFE0546C9480168284606F06B
:1041F00039FDC7490860A5E0C948006806F0D2FE4D
:104200000546C9480168284606F02CFDC6490860E5
:104210000320C449087095E0C148006806F0C2FE5A
:104220000546C1480168284606F01CFDBE490860E5
:104230000420BC490870BA48006806F0B3FE054681
:10424000B3480168284607F00AF8B149086079E0E8
:10425000B348006806F0A6FE0546AD48016828464A
:1042600006F0FDFFAA4908600520AE49087069E024
:1042700067E0AB48006806F095FE0546AA4801686D
:10428000284606F0ECFFA84908600620A5490870FA
:10429000A348006806F086FE05469D48016828464A
:1042A00006F0DDFF9A4908604CE09D48006806F082
:1042B00079FE05469C480168284606F0D0FF9A49D9
:1042C00008600720974908703CE09548006806F0B0
:1042D00069FE054694480168284606F0C0FF9249E9
:1042E000086008208F4908708D48006806F05AFE63
:1042F000054687480168284606F0B4FC84490860F2
:1043000020E08748006806F04DFE054682480168B7
:10431000284606F0A4FF80490860092081490870FA
:1043200010E07F48006806F03DFE05467A480168C7
:10433000284606F097FC784908600A2079490870F9
:1043400000E000BF00BF7448026871480168764809
:104350000068FFF719F8BDE8F087014640F6AC02A7
:10436000914215DA01200022704B1A801B1D1A8021
:104370001B1D1A801B1D1A806D4B1A606D4BC3F8F4
:1043800080216B4B1B1D1A606A4BC3F8842100E02F
:10439000002070472DE9F84F14276748007800285F
:1043A0006FD166480078012803D06548007801285D
:1043B00068D164480078012846D16248C07900F08D
:1043C000040008B9012401E04FF0FF345D48C079D2
:1043D00000F0020008B9012501E04FF0FF3559480F
:1043E000C07900F0010008B9012601E04FF0FF3666
:1043F00054498A78497802EB012101FB04F006F068
:10440000D1FD494908604F490A79C97802EB012179
:1044100001FB05F006F0C6FD3D49086049498A796F
:10442000497902EB012101FB06F006F0BBFD3A4998
:10443000086008460268364801683B480068FEF795
:10444000A3FF0020404908603E48007802283BD185
:104450003C48C07900F0080008B9012401E04FF0A1
:10446000FF343848C07900F0040008B9012501E0A4
:104470004FF0FF353348C07900F0020018B901262B
:1044800003E0A8E021E04FF0FF362E48C07900F0AD
:10449000010010B94FF0010B01E04FF0FF3B29483C
:1044A0004078604329490860264880786843284955
:1044B00008602448C0787043264908602148007984
:1044C00000FB0BF024490860D4E024480078012860
:1044D000FAD123480068A0F1800822480068A0F1C2
:1044E000800921480068A0F1800A7842804503DDF8
:1044F000B84501DA4FF000087842814503DDB9453F
:1045000001DA4FF000097842824532DDBA452DE0EC
:10451000A0000020BC000020A40000200200002019
:10452000C0000020390100209C00002034340140EC
:104530009001224200802142660000207700002086
:104540007800002067000020440100204C0000207B
:104550005000002054000020580000207900002066
:10456000C4000020C8000020CC00002001DA4FF079
:10457000000AFE48006808FB00F0C82190FBF1F03B
:10458000009006F00FFDFA490860C9F10000F749F4
:1045900009684843C82190FBF1F0009006F002FD45
:1045A000F4490860CAF10000F04909684843C8218D
:1045B00090FBF1F0009006F0F5FCEF49086008462A
:1045C0000268EC480168EA480068FEF7DDFE00205A
:1045D000EA4908604EE0EA48007801284AD1E948F3
:1045E0000078012846D1E748C07900F0040008B9F6
:1045F000012401E04FF0FF34E248C07900F00200EE
:1046000008B9012501E04FF0FF35DE48C07900F020
:10461000010008B9012601E04FF0FF36D9498A7838
:10462000497802EB012101FB04F006F0BBFCD04904
:104630000860D4490A79C97802EB012101FB05F031
:1046400006F0B0FCCB490860CE498A79497902EB83
:10465000012101FB06F006F0A5FCC74908600846E9
:104660000268C4480168C2480068FEF78DFE002059
:10467000C2490860BDE8F88F10B56420FCF752FC11
:104680000446022C07D1C048007808B9012000E098
:104690000020BD49087010BD70B5BC4800680028F6
:1046A0007ED14FF40040BA490860BA48007808B992
:1046B000012000E00020B7490870B74800780128C1
:1046C0000BD1B6480078401CC0B2B44908700A2823
:1046D00003D100200870B0490870AE480078012866
:1046E00015D1AF48007860B9AE48007848B9AE48F7
:1046F0000078012805D1A348AC490A6802604968DE
:10470000416003F0DFF9FFF7B7FF002070BD022022
:10471000FDF731FA142190FBF1F0A5490860A54896
:10472000006809680844A34908600320FDF723FADC
:10473000142190FBF1F0A0490860A04800680968C6
:1047400008449E4908600420FDF715FA40421421F0
:1047500090FBF1F09A4908609A480068096808449B
:10476000984908600520FDF706FA4042142190FBA5
:10477000F1F0954908609548006809680844934934
:10478000086003F09FF96420FCF78CFBFCF75FFFE7
:10479000054606F007FC04468D480168204600E007
:1047A000BAE006F05FFA8A4908604FF07E51894806
:1047B000006806F057FA874904460860864906F003
:1047C00081FB0ED184498248006806F0B9FA04469C
:1047D00006F0ACFB8149086000207D4908607D49F6
:1047E00008607F480068042807D101206D490870DF
:1047F00000207C4908706C4908707A4800780128CC
:1048000007D069480078012803D06648007801285D
:1048100001D1FFF7BFFD55480068002806DD534869
:1048200000680F2802DA0F20504908606B480068C2
:10483000FFF793FD00286FD15148007868BB6948A5
:10484000007848B95848007830B95648007818B907
:104850004B480078FFF70BFB634801685448006839
:10486000FEF7DAFF61490860614801685248006854
:10487000FEF74FFF5F4908605F48016850480068D5
:10488000FEF7FEFE5D4908605D4801684E4800681D
:10489000FEF7ADFE5B490860BEE05248007880B983
:1048A0004148007868B93F48007850B956480078C8
:1048B00018B9FCF7BCF95549087031480078FFF782
:1048C000D6FA494801683B480068FFF77AFA0012B7
:1048D000464908604648016838480068FFF71BFAF7
:1048E0000012444908604448016836480068FFF7F0
:1048F0006DF9001241490860414801683348006879
:10490000FFF70EF900123F4908601E4800780228A0
:1049100003D0FFF70BF807E08CE014480368026847
:1049200001680068FEF7C1FF304800684142204836
:104930000068FEF771FF2D4908602E48006841426B
:104940001D480068FEF7E5FE2A4908602B4800680C
:1049500041421B480068FEF793FE28490860294839
:10496000006841421848006852E00000BC00002086
:104970009C000020A0000020A40000204401002092
:104980006600002067000020040000203C812142D6
:10499000140401403801002065000020640000205C
:1049A0007A00002079000020780000206F000020AD
:1049B00008000020180000200C0000201C0000202F
:1049C00010000020200000201400002024000020FF
:1049D000400100203C0100200000C8425C00002093
:1049E000D4000020770000204C0000203C00002074
:1049F000500000204000002054000020440000200F
:104A000058000020480000208D00002002000020F7
:104A1000FEF7EDFD0849086041F6F420FEF7AEFD13
:104A200005480368054802680548016805480068AC
:104A3000FEF750FD002069E64800002044000020F9
:104A4000400000203C00002038B50446FB4890F8A8
:104A50002400C0B114B10220009001E000200090B9
:104A6000F64A1268D17BF54A526810786B460122EB
:104A7000FDF7EEF910B14FF0FF3038BD9DF8001092
:104A8000EE48417423E0ED48807A10B94FF0FF30D2
:104A9000F3E724B1E948407C08B10020EDE714B108
:104AA0000120009001E000200090E44A1268D17BD0
:104AB000E24A526810786B460122FDF7C9F910B13D
:104AC0004FF0FF30D9E79DF80010DC48417400201A
:104AD000D3E738B5002419E0D8480068C07AA0426E
:104AE00004D0D6480068407DA04200D10CE0D349F4
:104AF000496808786B4601222146FDF70BFA10B190
:104B00004FF0FF3038BD00BF601CC4B2CB484068D6
:104B10000079A042E0DC0020F4E770B504460D46C1
:104B2000C6480068C07AA04204D0C4480068407DEE
:104B3000A04202D14FF0FF3070BDC04840680079FC
:104B4000A04202DC4FF0FF30F6E7BC494968087824
:104B50002B4601222146FDF7DDF9EDE738B5044685
:104B6000B64890F82300A04201D1002038BD14B10E
:104B70003020009001E000200090B048807C20B1FF
:104B80009DF8000040F002000090AC4890F8220030
:104B900020B19DF8000040F080000090A74A126804
:104BA000117DA64A526810786B460122FDF750F934
:104BB00010B14FF0FF30D9E7A04880F82340002023
:104BC000D4E738B5044604F0700010B1012000901D
:104BD00005E014B10020009001E040200090974AC9
:104BE0001268917C954A526810786B460122FDF755
:104BF0002FF920B1002191488172481E38BD9DF8DF
:104C0000000020F040018D4801730020009004F066
:104C1000400020B99DF8000040F00400009004F02E
:104C2000200020B99DF8000040F00200009004F040
:104C3000100020B99DF8000040F00100009004F041
:104C4000080020B99DF8000040F0380000907B4A31
:104C50001268D17C794A526810786B460122FDF7C0
:104C6000F7F820B1002175488172481EC6E724B1CB
:104C7000082C02D00020FFF771FF704884720021D9
:104C800001753220FBF7A8FB0020B7E738B50446D2
:104C90006A48807CA04201D1002038BD002C46D05B
:104CA000664A12681179654A526810786B4601228B
:104CB000FDF730F910B14FF0FF30EEE79DF800003E
:104CC00020F0200000905D4A126811795B4A52681A
:104CD00010786B460122FDF7BBF810B14FF0FF30A2
:104CE000DBE70320FBF778FB02200090534890F8A5
:104CF000220020B19DF8000040F0800000904F4855
:104D000090F8230020B19DF8000040F030000090A2
:104D10004A4A1268117D494A526810786B4601224E
:104D2000FDF796F8002851D04FF0FF30B5E7434A21
:104D300012681179414A526810786B460122FDF7DA
:104D4000E9F810B14FF0FF30A7E73C48807A00F057
:104D5000010028B19DF8000040F02000009004E020
:104D60009DF8000020F020000090344A126811796C
:104D7000324A526810786B460122FDF769F810B18B
:104D80004FF0FF3089E70320FBF726FB2B4890F814
:104D9000220010B18020009001E000200090274800
:104DA00090F8230020B19DF8000040F03000009002
:104DB000224A1268117D214A526810786B460122FE
:104DC000FDF746F810B14FF0FF3066E71B488474DA
:104DD000002062E708B51948807A10B94FF0FF301B
:104DE00008BD00200090154A1268D17B134A526812
:104DF00010786B460122FDF72BF810B14FF0FF3011
:104E0000EEE70E4A126851790C4A526810786B46E8
:104E10000122FDF71DF810B14FF0FF30E0E7074A1F
:104E200012681179054A526810786B460122FDF725
:104E30000FF828B14FF0FF30D2E70000E00100206A
:104E4000F74890F82400002850D00C200090F44A35
:104E500012681179F24A526810786B460122FCF709
:104E6000F7FF10B14FF0FF30BAE7C0200090EC48D8
:104E7000807A00F0010020B19DF8000040F0200091
:104E80000090E74A12681179E54A526810786B463B
:104E90000122FCF7DDFF10B14FF0FF30A0E7E04842
:104EA000407C10B10220009001E000200090DC4A1C
:104EB0001268D17BDA4A526810786B460122FCF7FF
:104EC000C7FF10B14FF0FF308AE700200090D44AAE
:104ED00012685179D24A526810786B460122FCF769
:104EE000B7FF002852D04FF0FF3079E70420009040
:104EF000CB4A12681179CA4A526810786B4601226F
:104F0000FCF7A6FF10B14FF0FF3069E7C448807C82
:104F100020B9C348807A00F0010010B94020009009
:104F200001E060200090BE4A12681179BC4A5268C4
:104F300010786B460122FCF78BFF10B14FF0FF3069
:104F40004EE7B748407C10B10120009001E00020FE
:104F50000090B34A1268D17BB14A526810786B4610
:104F60000122FCF775FF10B14FF0FF3038E7AC4A73
:104F700012685179AA4A52681078A94B103301225D
:104F8000FCF766FF10B14FF0FF3029E7002027E75C
:104F900070B50446002624F00104A14890F82400CE
:104FA00008B1002070BD9E48807A10B94FF0FF30E4
:104FB000F8E79B48057C807A2040994908740846A8
:104FC000007CA04202D04FF0FF3600E0002614B96A
:104FD0009348007D18B10120FFF736FD02E0002064
:104FE000FFF732FD3CB1FFF7F5FE20B18C480574A8
:104FF0004FF0FF30D6E73046D4E738B5044688484E
:10500000807A10B94FF0FF3038BDBC2C02DB012094
:10501000009015E0622C02DB0220009010E02A2CA8
:1050200002DB032000900BE0142C02DB0420009034
:1050300006E00A2C02DB0520009001E0062000902B
:105040007748C07A9DF80010884201D10020DBE744
:10505000734A12689178724A526810786B4601223E
:10506000FCF7F6FE10B14FF0FF30CDE79DF80010D1
:105070006B48C1720020C7E738B50446282C02DD12
:105080004FF0FF3038BDDCB90020FFF767FD00208E
:105090008DF8000007208DF80100614A1268917CAC
:1050A0005F4A526810786B460222FCF7D1FE10B1BD
:1050B0004FF0FF30E6E70021594801750020E1E795
:1050C0000120FFF74BFD20208DF80000012C06D1B8
:1050D00000208DF801000520FFF78FFF17E0052C59
:1050E00006DC01208DF801000520FFF786FF0EE0A9
:1050F000142C06DC02208DF801000A20FFF77DFF4A
:1051000005E003208DF801001420FFF776FF9DF8DD
:105110000100072101EB8010C0B28DF80100404A68
:105120001268917C3E4A526810786B460222FCF766
:105130008FFE10B14FF0FF30A4E70821384881728C
:1051400000210173012101750020FFF721FF0020DC
:1051500098E738B504463248807A10B94FF0FF30EE
:1051600038BD2F4890F8240010B14FF0FF30F7E71A
:105170002B48007D50B134B1282C04DCE0B2FFF79D
:105180007BFF0020ECE70020FFF776FF042C01DA1C
:10519000042404E0B4F57A7F01DD4FF47A744FF40F
:1051A0007A7090FBF4F0401EC0B200901C4A126866
:1051B00051781B4A526810786B460122FCF748FE72
:1051C00010B14FF0FF30CBE79DF80000401C4FF4CA
:1051D0007A7191FBF0F081B21148C1810146C98911
:1051E0004810FFF70AFF0020BAE738B504460C481C
:1051F000807A10B94FF0FF3038BD022C06D0042C55
:1052000007D0082C08D0102C0FD10BE00020009004
:105210000EE0082000900BE01020009008E0000055
:10522000E00100201820009002E04FF0FF30E3E79B
:1052300000BFF948407A9DF80010B0EBE10F01D1B2
:105240000020D9E7F44A1268D179F34A52681078FD
:105250006B460122FCF7FCFD10B14FF0FF30CBE7AD
:105260009DF80000C110EC4841720020C4E738B539
:105270000446E948807A10B94FF0FF3038BDFA2C67
:1052800009D0B4F5FA7F09D0B4F57A7F09D0B4F526
:10529000FA6F0CD108E0002000900BE0082000908D
:1052A00008E01020009005E01820009002E04FF088
:1052B000FF30E3E700BFD848007A9DF80010B0EB5C
:1052C000E10F01D10020D9E7D34A12689179D24A7F
:1052D000526810786B460122FCF7BAFD10B14FF00E
:1052E000FF30CBE79DF80000C010CB4908720020CA
:1052F000C4E71CB580208DF80000C74A1268917C75
:10530000C54A526810786B460122FCF7A1FD10B126
:105310004FF0FF301CBD6420FBF75EF800208DF8D5
:105320000000BD4A1268917CBB4A526810786B46F7
:105330000122FCF78DFD10B14FF0FF30EAE7B64ACD
:105340001268917DB44A526810786B460622FCF7C9
:10535000E1FD10B14FF0FF30DCE79DF80500C0071C
:10536000400F9DF8031001F0010140EA41009DF853
:10537000011001F0010140EA010494B1012C03D1B4
:105380000121A548C17431E0022C03D10021A248BB
:10539000C1742BE02146A1A003F040FB4FF0FF3089
:1053A000B8E79D4A1268D1789B4A526810786B46DC
:1053B0000122FCF7AFFD10B14FF0FF30AAE79DF8D6
:1053C000000000F00F042CB99E4803F027FB4FF0BB
:1053D000FF309FE7042C06D19BA003F01FFB0121A7
:1053E0008D48C17402E000218B48C174FF218A48B6
:1053F0008172FF2088490872FF2187484172C1727B
:105400004FF6FF71C181FF21017481740121017385
:1054100080F82210002180F82310417501751630A4
:10542000016041608160163880F8241080F82510F2
:10543000C1844FF4FA60FFF71AFF10B14FF0FF304C
:1054400068E70220FFF7D1FE10B14FF0FF3061E7AF
:105450002A20FFF7D2FD10B14FF0FF305AE732207B
:10546000FFF777FE10B14FF0FF3053E70020FFF752
:105470008FFD10B14FF0FF304CE70020FFF706FC26
:1054800010B14FF0FF3045E70020FFF79AFB0020F6
:1054900040E770477CB504460D465F48807A00F0CF
:1054A000700010B94FF0FF307CBD5B4A1268117B71
:1054B000594A526810786B460622FCF72BFD10B152
:1054C0004FF0FF30F0E79DF801009DF8001040EA32
:1054D000012000B220809DF803009DF8021040EAF0
:1054E000012000B260809DF805009DF8041040EA9C
:1054F000012000B2A08015B12846FFF7CAFF0020A6
:10550000D2E77CB504460D464348807A00F0080097
:1055100010B94FF0FF307CBD3F4A1268517B3E4AC4
:10552000526810786B460622FCF7F4FC10B14FF07D
:10553000FF30F0E79DF801009DF8001040EA0120DF
:1055400000B220809DF803009DF8021040EA01207F
:1055500000B260809DF805009DF8041040EA01202B
:1055600000B2A08015B12846FFF793FF0020D2E7D4
:105570002DE9FE4F05460C462748807A18B94FF0B2
:10558000FF30BDE8FE8F244A1268917B224A5268A0
:10559000107802AB0222FCF7BDFC10B14FF0FF30D7
:1055A000EFE79DF809009DF8081040EA012006B2D7
:1055B00014B12046FFF76DFF17494968C88805F008
:1055C00009FD154901904968B1F9080005F0EAFCA8
:1055D0008346304605F0E6FC5946009005F04AFE49
:1055E0008246019905F0ACFB81461F4905F03AFB64
:1055F00080464FF08F4105F035FD074605F096FCDB
:1056000028600020BDE710B588B004461CB94FF0F3
:10561000FF3008B010BD29E0E0010020556E737521
:1056200070706F7274656420736F667477617265F1
:105630002070726F64756374207265762025642E05
:105640000A00000078CC000848616C662073656E23
:105650007369746976697479207061727420666FF9
:10566000756E642E0D0A000000000C42206830B9EF
:10567000606820B9A06810B9002008B010BDFA49D0
:105680004968087806AB03221146FCF743FC10B1C9
:105690004FF0FF30F1E79DF81800082101EB2010D2
:1056A00000F00F00ADF800009DF8190001EB20108C
:1056B00000F00F00ADF802009DF81A0001EB201079
:1056C00000F00F00ADF8040020684100BDF90000B3
:1056D000403091FBF0F000B2ADF81000606841007E
:1056E000BDF90200403091FBF0F000B2ADF81200BD
:1056F000A0684100BDF90400403091FBF0F000B219
:10570000ADF81400D8494968087806AB062211465E
:10571000FCF700FC10B14FF0FF30AEE79DF8190028
:105720009DF8181040EA012000B2ADF808009DF87D
:105730001B009DF81A1040EA012000B2ADF80A00E3
:105740009DF81D009DF81C1040EA012000B2ADF844
:105750000C00BDF81000BDF80810084400B2ADF808
:105760001000BDF81200BDF80A10084400B2ADF8F0
:105770001200BDF81400BDF80C10084400B2ADF8DA
:105780001400BDF81000000A8DF81800BDF81000D4
:10579000C0B28DF81900BDF81200000A8DF81A0089
:1057A000BDF81200C0B28DF81B00BDF81400000A4D
:1057B0008DF81C00BDF81400C0B28DF81D00AA4978
:1057C0004968087806AB06221146FCF741FB10B188
:1057D0004FF0FF3051E700204FE70146A248007A22
:1057E00030B1012807D0022809D003280FD10AE0E0
:1057F000FA2008800EE04FF4FA7008800AE04FF4B7
:105800007A70088006E04FF4FA60088002E0002019
:10581000088000BF00BF0020704701469248407AD0
:1058200030B1012807D0022808D003280CD108E0A5
:10583000022008700BE00420087008E008200870BF
:1058400005E01020087002E04FF0FF30704700BF05
:105850008548C07C18B108784006000E087000200A
:10586000F4E701468048C07A082817D2DFE800F044
:105870001704070A0D101318BC20088013E06220DB
:10588000088010E02A2008800DE0142008800AE03B
:105890000A20088007E00520088004E000BF00BF60
:1058A0000020088000BF00BF0020704701466E48FE
:1058B00090F8240010B14FF0FF3070476A48C0895B
:1058C00008800020F9E7014600200880401E70474C
:1058D00001464FF0FF30704701466348007A30B10F
:1058E000012807D0022808D003280CD108E05F481F
:1058F00008600BE05E48086008E05E48086005E06C
:105900005D48086002E04FF0FF30704700BF0020A4
:10591000FBE701465448407A30B1012808D00228FC
:105920000AD0032810D10BE04FF4804008800EE02D
:1059300041F69C7008800AE04FF48050088006E031
:105940004FF40060088002E04FF0FF30704700BF66
:105950004548C07C10B10888401008800020F5E759
:1059600001464148007C08700020704701463E48CF
:10597000807A10B10120087001E00020087000203A
:10598000704738B504463848807A10B94FF0FF3078
:1059900038BD354A1268117C334A526810786B461C
:1059A0000222FCF7B7FA10B14FF0FF30F0E79DF894
:1059B00001009DF8001040EA012000B22080002084
:1059C000E6E72DE9FE4F0746884692461D46DDF87C
:1059D00030B000260024244890F8240010B1601E46
:1059E000BDE8FE8F002028701F48807A10B94FF064
:1059F000FF30F5E71C48007C10B94FF0FF30EFE7AF
:105A00001948007C00F0400008B1B01CC6B216482E
:105A1000007C00F0200008B1B01CC6B21248007C27
:105A200000F0100008B1B01CC6B20F48007C00F0B6
:105A3000080008B1B01DC6B20B4A1268917A0A4A32
:105A4000526810786B460222FCF764FA10B14FF0EE
:105A5000FF30C5E79DF801009DF8001040EA0129DC
:105A6000B1450BDA0020BBE7E00100200000034352
:105A7000000083423333034233338341FC484068A0
:105A80004088B9EB600F17DDF94A1268517CF84A7B
:105A9000526810786B460122FCF73CFA10B14FF0C7
:105AA000FF309DE79DF8000000F0100020B1FFF7E7
:105AB00091F96FF0010093E75046FFF7EAFCEC4ADA
:105AC0001268D17AEA4A526810786B463246FCF77F
:105AD00021FA10B14FF0FF3082E799FBF6F0401E3B
